:100000000C9424010C9438010C9438010C943801A0
:100010000C9438010C9438010C9438010C9438017C
:100020000C9438010C9438010C9438010C9438016C
:100030000C9438010C9438010C9438010C9438015C
:100040000C9438010C9438010C9438010C9438014C
:100050000C9438010C9438010C9438010C9447022C
:100060000C9438010C9438010C9438010C9438012C
:100070000C9438010C9438010C9438010C9438011C
:100080000C9438010C9438010C9438010C9438010C
:100090000C9438010C9438010C9438010C943801FC
:1000A0000C9438010C9438010C9438010C943801EC
:1000B0000C9438010C9438010C9438010C943801DC
:1000C0000C9438010C9438010C9438010C943801CC
:1000D0000C9438010C9438010C9438010C943801BC
:1000E0000C9438010C94B6010C9492010C94C60146
:1000F0000C94BC010C94D8010C94AF010C94D40165
:100100000C94B3010C94DC010C94E2010C94AB014F
:100110000C94E6010C94C0010C9497010C94CA0154
:100120000C94CE010C94A7010000200023002600AF
:1001300029002C002F0032000001000003010601FD
:10014000090100000A0B02090C0D0E080703040147
:10015000000000000000000000000000000000009F
:10016000000000000000000000000000000012116C
:10017000100000000000000000000000000000006F
:100180000000000000000000000022002500280000
:100190002B002E003100340002010000050108018F
:1001A0000B0100002100240027002A002D00300050
:1001B000330001010000040107010A0105050505DE
:1001C000070508080808020202020A0A08080404CF
:1001D00004040101010101010101030303030303FD
:1001E0000303040707070C0C0C0C0C0C0C0C02028C
:1001F000020206060606060606060B0B0B0B0B0B89
:100200000B0B010210202008081020401020408015
:1002100002010201080402010102040810204080CA
:100220008040201008040201800402018040201058
:1002300008040201080402010102040810204080A1
:10024000010204081020408011241FBECFEFD1E22C
:10025000DEBFCDBF00E00CBF22E0A0E0B2E001C0F5
:100260001D92AD30B207E1F70E9491020C94640335
:100270000C940000CF93DF9390E0FC01EE5FFD4F04
:10028000249184549E4FFC0184918823C1F090E016
:10029000880F991FFC01EE55FE4FC591D491FC01CA
:1002A000E857FE4FA591B4919FB7F8948881E22F4B
:1002B000E0958E2388838C91E823EC939FBFDF9198
:1002C000CF910895282F30E0F901EE5BFE4F949115
:1002D000F901EE5FFD4F449124543E4FF901249102
:1002E000222309F477C0992311F191509231F8F447
:1002F000E92FF0E08827E058FE4F8F4F0C945C0305
:10030000AF01B3019201A701AB019701B601BC0196
:10031000C001C601CA01CE01D401D8019701DC0198
:10032000E201E601809180008F7780938000E22FC8
:10033000F0E0EE0FFF1FE85DFE4FA591B491EC9148
:10034000E42381E090E009F047C080E008958091C7
:1003500080008F7DEACF80918000877FE6CF84B5D3
:100360008F7784BDE4CF84B58F7DFBCF8091B000C3
:100370008F778093B000DBCF8091B0008F7DF9CF75
:10038000809190008F7780939000D1CF80919000E2
:100390008F7DF9CF80919000877FF5CF8091A0006D
:1003A0008F778093A000C3CF8091A0008F7DF9CF7D
:1003B0008091A000877FF5CF809120018F77809377
:1003C0002001B5CF809120018F7DF9CF8091200150
:1003D000877FF5CF80E090E008953FB7F894809153
:1003E000090290910A02A0910B02B0910C0226B56D
:1003F000A89B05C02F3F19F00196A11DB11D3FBF5D
:10040000BA2FA92F982F8827BC01CD01620F711D2B
:10041000811D911D42E0660F771F881F991F4A9525
:10042000D1F708958F929F92AF92BF92CF92DF92B1
:10043000EF92FF920E94ED014B015C018EE6C82E07
:10044000D12CE12CF12C0E94ED01681979098A095F
:100450009B09683E734081059105A8F321E0C21A0B
:10046000D108E108F10888EE880E83E0981EA11CEF
:10047000B11CC114D104E104F10429F7FF90EF90FD
:10048000DF90CF90BF90AF909F908F9008951F9274
:100490000F920FB60F9211242F933F938F939F9338
:1004A000AF93BF938091050290910602A09107023D
:1004B000B09108023091040223E0230F2D3758F544
:1004C0000196A11DB11D2093040280930502909313
:1004D0000602A0930702B09308028091090290914E
:1004E0000A02A0910B02B0910C020196A11DB11D50
:1004F0008093090290930A02A0930B02B0930C021E
:10050000BF91AF919F918F913F912F910F900FBE0F
:100510000F901F90189526E8230F0296A11DB11D7C
:10052000D2CF789484B5826084BD84B5816084BD67
:1005300085B5826085BD85B5816085BD80916E0081
:10054000816080936E0010928100809181008260B2
:1005500080938100809181008160809381008091EF
:1005600080008160809380008091B10084608093DE
:10057000B1008091B00081608093B00080919100C3
:1005800082608093910080919100816080939100BE
:10059000809190008160809390008091A1008260A2
:1005A0008093A1008091A10081608093A10080913F
:1005B000A00081608093A0008091210182608093DF
:1005C000210180912101816080932101809120018E
:1005D00081608093200180917A00846080937A000A
:1005E00080917A00826080937A0080917A008160A5
:1005F00080937A0080917A00806880937A001092CC
:10060000C10010BA8FEF87B988E10E943A0189E1F1
:100610000E943A0181E10E943A01C0E0D0E088E105
:100620000E946201019759F48091020290910302A5
:10063000019690930302809302020E94120289E1C4
:100640000E946201019731F410920302109202029B
:100650000E94120281E10E946201892B71F0809157
:100660000002909101029093030280930202109283
:100670000102109200020E9412028AE10E946201AD
:10068000892B89F080910202909103020196909348
:100690000102809300028FB190E090930302809357
:1006A00002020E9412028091020288B9209709F486
:1006B000B6CF0E940000B3CFEE0FFF1F881F8BBF85
:0C06C0000790F691E02D1994F894FFCFFC
:00000001FF
