:100000000C9424010C9438010C9438010C943801A0
:100010000C9438010C9438010C9438010C9438017C
:100020000C9438010C9438010C9438010C9438016C
:100030000C9438010C9438010C9438010C9438015C
:100040000C9438010C9438010C9438010C9438014C
:100050000C9438010C9438010C9438010C943A013A
:100060000C9438010C9438010C9438010C9438012C
:100070000C9438010C9438010C9438010C9438011C
:100080000C9438010C9438010C9438010C9438010C
:100090000C9438010C9438010C9438010C943801FC
:1000A0000C9438010C9438010C9438010C943801EC
:1000B0000C9438010C9438010C9438010C943801DC
:1000C0000C9438010C9438010C9438010C943801CC
:1000D0000C9438010C9438010C9438010C943801BC
:1000E0000C9438010C94B7020C9497020C94AF0254
:1000F0000C9486020C94B3020C949B020C945A024A
:100100000C9491020C94A1020C94A5020C945F0231
:100110000C94C1020C948A020C9482020C94A902E1
:100120000C948E020C94BD020000220025002800D1
:100130002B002E00310034000201000005010801EF
:100140000B0100002100240027002A002D003000B0
:10015000330001010000040107010A010000200032
:100160002300260029002C002F003200000100008F
:10017000030106010901050505050705080808082A
:10018000020202020A0A080804040404010101012F
:10019000010101010303030303030303040707072A
:1001A0000C0C0C0C0C0C0C0C0202020206060606CF
:1001B000060606060B0B0B0B0B0B0B0B010210209C
:1001C000200808102040102040800201020108048D
:1001D0000201010204081020408080402010080421
:1001E000020180040201804020100804020108047A
:1001F00002010102040810204080010204081020BE
:10020000408000000A0B02090C0D0E0807030401D0
:1002100000000000000000000000000000000000DE
:1002200000000000000000000000000000001211AB
:1002300010000000000000000000000000000000AE
:10024000000000000000000011241FBECFEFD1E22B
:10025000DEBFCDBF00E00CBF22E0A0E0B2E001C0F5
:100260001D92A930B207E1F70E9484010C940903A2
:100270000C9400001F920F920FB60F9211242F932F
:100280003F938F939F93AF93BF938091050290917B
:100290000602A0910702B09108023091040223E007
:1002A000230F2D3758F50196A11DB11D209304028F
:1002B0008093050290930602A0930702B093080270
:1002C0008091000290910102A0910202B09103027C
:1002D0000196A11DB11D8093000290930102A0938D
:1002E0000202B0930302BF91AF919F918F913F9112
:1002F0002F910F900FBE0F901F90189526E8230F97
:100300000296A11DB11DD2CF789484B5826084BDC0
:1003100084B5816084BD85B5826085BD85B5816009
:1003200085BD80916E00816080936E001092810087
:100330008091810082608093810080918100816042
:100340008093810080918000816080938000809103
:10035000B10084608093B1008091B000816080938F
:10036000B000809191008260809391008091910013
:1003700081608093910080919000816080939000D3
:100380008091A10082608093A1008091A100816092
:100390008093A1008091A00081608093A000809153
:1003A00021018260809321018091210181608093ED
:1003B00021018091200181608093200180917A0049
:1003C000846080937A0080917A00826080937A00C2
:1003D00080917A00816080937A0080917A008068B1
:1003E00080937A001092C1008FEF81B984B987B9E8
:1003F00010BAECECF1E02491E6E8F1E08491882376
:10040000C9F090E0880F991FFC01EE5BFE4F45910B
:100410005491FC01E85DFE4FA591B4919FB7F8940B
:10042000FA0180812095822380838C91E22FE8233A
:10043000EC939FBF61E3662E62E0762E7BEEE72EA3
:1004400071E0F72EE5EACE2EE1E0DE2EF4E68F2E07
:10045000912C0AE010E0A0E0AA2EA0E0BA2E4FB145
:10046000F3018491F7019491F6015491242F30E027
:10047000552309F48AC0882311F181508231F8F4A0
:10048000E82FF0E08827E85BFD4F8F4F0C94ED02DA
:100490008A028E025A02820286025F02910297024B
:1004A0009B02A102A502A902AF02B3025F02B7023A
:1004B000BD02C102809180008F7780938000E52F7C
:1004C000F0E0EE0FFF1FE45AFE4FA591B4918C911E
:1004D000982309F45AC0C901B4010E94D90262B933
:1004E000C901B8010E94D902282FCB01B8010E948E
:1004F000D90285B928B9A114B10409F4B0CF0E947A
:100500000000ADCF809180008F7DD7CF809180009B
:10051000877FD3CF84B58F7784BDD1CF84B58F7DCE
:10052000FBCF8091B0008F778093B000C8CF8091CF
:10053000B0008F7DF9CF809190008F7780939000ED
:10054000BECF809190008F7DF9CF80919000877F02
:10055000F5CF8091A0008F778093A000B0CF8091DD
:10056000A0008F7DF9CF8091A000877FF5CF80918B
:1005700020018F7780932001A2CF809120018F7D71
:10058000F9CF80912001877FF5CF12B884E03595AF
:1005900027958A95E1F725B9C42FC295C07FF0E071
:1005A000DF2FCE0124E0959587952A95E1F788B94C
:1005B000A2CF97FB072E16F4009407D077FD09D041
:1005C0000E94F50207FC05D03EF4909581959F4F5F
:1005D0000895709561957F4F0895EE0FFF1F881F56
:1005E0008BBF0790F691E02D1994AA1BBB1B51E11C
:1005F00007C0AA1FBB1FA617B70710F0A61BB70B93
:10060000881F991F5A95A9F780959095BC01CD0137
:060610000895F894FFCFED
:00000001FF
