:100000000C9424010C9438010C9438010C943801A0
:100010000C9438010C9438010C9438010C9438017C
:100020000C9438010C9438010C9438010C9438016C
:100030000C9438010C9438010C9438010C9438015C
:100040000C9438010C9438010C9438010C9438014C
:100050000C9438010C9438010C9438010C948E02E5
:100060000C9438010C9438010C9438010C9438012C
:100070000C9438010C9438010C9438010C9438011C
:100080000C9438010C9438010C9438010C9438010C
:100090000C9438010C9438010C9438010C943801FC
:1000A0000C9438010C9438010C9438010C943801EC
:1000B0000C9438010C9438010C9438010C943801DC
:1000C0000C9438010C9438010C9438010C943801CC
:1000D0000C9438010C9438010C9438010C943801BC
:1000E0000C9438010C948F010C9462010C946601FD
:1000F0000C946D010C9458010C945E010C946A01EF
:100100000C9473010C948B010C949D010C94990137
:100110000C947D010C9498010C9481010C9477014E
:100120000C9485010C949301000021002400270009
:100130002A002D00300033000101000004010701F6
:100140000A0100002200250028002B002E003100AB
:10015000340002010000050108010B01000020002D
:100160002300260029002C002F003200000100008F
:10017000030106010901050505050705080808082A
:10018000020202020A0A080804040404010101012F
:10019000010101010303030303030303040707072A
:1001A0000C0C0C0C0C0C0C0C0202020206060606CF
:1001B000060606060B0B0B0B0B0B0B0B010210209C
:1001C000200808102040102040800201020108048D
:1001D0000201010204081020408080402010080421
:1001E000020180040201804020100804020108047A
:1001F00002010102040810204080010204081020BE
:10020000408000000A0B02090C0D0E0807030401D0
:1002100000000000000000000000000000000000DE
:1002200000000000000000000000000000001211AB
:1002300010000000000000000000000000000000AE
:10024000000000000000000011241FBECFEFD1E22B
:10025000DEBFCDBF00E00CBF22E0A0E0B2E001C0F5
:100260001D92AA30B207E1F70E94D8020C94B205A1
:100270000C9400008150823108F05AC0E82FF0E061
:100280008827EA5BFE4F8F4F0C94AA0566016A012E
:1002900058015E01620198016D01730177017D01D2
:1002A000810185018B018F019801930199019D01C5
:1002B000809180008F7780938000089580918000E6
:1002C0008F7DF9CF80918000877FF5CF84B58F77C0
:1002D00084BD089584B58F7DFBCF8091B0008F776A
:1002E0008093B00008958091B0008F7DF9CF809108
:1002F00090008F77809390000895809190008F7D7B
:10030000F9CF80919000877FF5CF8091A0008F7703
:100310008093A00008958091A0008F7DF9CF8091F7
:10032000A000877FF5CF809120018F7780932001F7
:100330000895809120018F7DF9CF80912001877FE2
:10034000F5CFCF93DF93282F30E0F901EE5FFD4F1B
:100350008491F901E454FE4FD491F901EA58FE4F1B
:10036000C491CC23A1F081110E943A01EC2FF0E05E
:10037000EE0FFF1FE45AFE4FA591B491EC91ED23CF
:1003800081E090E009F480E0DF91CF91089580E072
:1003900090E0FACF1F93CF93DF93282F30E0F9013D
:1003A000EE5FFD4F8491F901E454FE4FD491F901C1
:1003B000EA58FE4FC491CC23A9F0162F81110E9458
:1003C0003A01EC2FF0E0EE0FFF1FEE5BFE4FA59120
:1003D000B4918FB7F894EC91111108C0D095DE2339
:1003E000DC938FBFDF91CF911F910895DE2BF8CF63
:1003F000CF93DF9390E0FC01E454FE4F24918A58A0
:100400009E4FFC0184918823C9F090E0880F991FCA
:10041000FC01E85DFE4FA591B491FC01EE5BFE4F3F
:10042000C591D49161110DC09FB7F8948C9120951E
:1004300082238C938881282328839FBFDF91CF91CB
:100440000895623051F49FB7F8943C91822F8095C3
:1004500083238C93E8812E2BEFCF8FB7F894EC9108
:100460002E2B2C938FBFEACF3FB7F89480910602D2
:1004700090910702A0910802B091090226B5A89BAD
:1004800005C02F3F19F00196A11DB11D3FBFBA2F26
:10049000A92F982F8827BC01CD01620F711D811DE6
:1004A000911D42E0660F771F881F991F4A95D1F76B
:1004B00008958F929F92AF92BF92CF92DF92EF9268
:1004C000FF920E9434024B015C0184E6C82ED12CBD
:1004D000E12CF12C0E943402681979098A099B09E0
:1004E000683E734081059105A8F321E0C21AD10846
:1004F000E108F10888EE880E83E0981EA11CB11C6B
:10050000C114D104E104F10429F7FF90EF90DF90CA
:10051000CF90BF90AF909F908F9008951F920F92B1
:100520000FB60F9211242F933F938F939F93AF9306
:10053000BF938091020290910302A0910402B091B6
:1005400005023091010223E0230F2D3758F5019663
:10055000A11DB11D2093010280930202909303021A
:10056000A0930402B09305028091060290910702C5
:10057000A0910802B09109020196A11DB11D8093BE
:10058000060290930702A0930802B0930902BF915C
:10059000AF919F918F913F912F910F900FBE0F9030
:1005A0001F90189526E8230F0296A11DB11DD2CFEA
:1005B000789484B5826084BD84B5816084BD85B53E
:1005C000826085BD85B5816085BD80916E0081604A
:1005D00080936E00109281008091810082608093F0
:1005E00081008091810081608093810080918000F2
:1005F0008160809380008091B10084608093B1001D
:100600008091B00081608093B00080919100826001
:1006100080939100809191008160809391008091FE
:1006200090008160809390008091A100826080930F
:10063000A1008091A10081608093A1008091A00021
:1006400081608093A00080912101826080932101CC
:10065000809121018160809321018091200181603E
:100660008093200180917A00846080937A00809149
:100670007A00826080937A0080917A008160809312
:100680007A0080917A00806880937A001092C1008D
:1006900060E080E00E94F80160E081E00E94F801E3
:1006A00060E084E20E94F80160E082E00E94F801CC
:1006B00060E083E00E94F80160E084E00E94F801BD
:1006C00060E085E00E94F80160E081E10E94F801AD
:1006D00060E080E10E94F80160E086E20E94F8019B
:1006E00060E086E00E94F80161E085E10E94F80187
:1006F00061E084E10E94F80161E083E10E94F80179
:1007000061E082E10E94F80161E084E30E94F80167
:1007100061E083E30E94F80161E082E30E94F80156
:1007200060E08AE00E94F80161E08BE00E94F8013D
:1007300061E086E10E94F80161E087E10E94F80132
:1007400061E088E10E94F80161E089E10E94F8011E
:1007500061E08AE10E94F80161E08BE10E94F8010A
:1007600061E08CE10E94F80161E08DE10E94F801F6
:1007700061E08EE10E94F80161E08FE10E94F801E2
:1007800061E080E20E94F80161E081E20E94F801EC
:1007900061E082E20E94F80161E083E20E94F801D8
:1007A00063E085E30E94F80160E086E10E94CA01EF
:1007B00060E087E10E94CA0160E088E10E94CA010E
:1007C00060E089E10E94CA0160E08AE10E94CA01FA
:1007D00060E08BE10E94CA0160E08CE10E94CA01E6
:1007E00060E08DE10E94CA0160E08EE10E94CA01D2
:1007F00060E08FE10E94CA0160E080E20E94CA01CD
:1008000060E081E20E94CA0160E082E20E94CA01C7
:1008100060E083E20E94CA0100E010E080910002E3
:100820008111BCC061E081E20E94CA0161E08AE1FD
:100830000E94CA010E94590260E08AE10E94CA0136
:1008400060E081E20E94CA0161E08FE10E94CA017A
:1008500061E08BE10E94CA010E94590260E08BE1D5
:100860000E94CA0160E08FE10E94CA0180E00E94FC
:10087000A101019769F561E08CE10E94CA0161E084
:100880008AE10E94CA010E94590260E08AE10E9446
:10089000CA0160E08CE10E94CA0161E08FE10E9420
:1008A000CA0161E086E10E94CA010E94590260E02B
:1008B00086E10E94CA0160E08FE10E94CA0161E006
:1008C00080E20E94CA010E94590260E080E2CAC030
:1008D00085E00E94A101019709F067C061E08CE109
:1008E0000E94CA0161E08AE10E94CA010E94590285
:1008F00060E08AE10E94CA0160E08CE10E94CA01C6
:1009000061E08FE10E94CA0161E088E10E94CA01B2
:100910000E94590260E088E10E94CA0160E08FE114
:100920000E94CA010E94590285E00E94A101EC01C7
:10093000892B31F061E083E10E94CA01C3E1D0E07C
:1009400081E00E94A101892B31F061E085E10E94E4
:10095000CA01C5E1D0E082E00E94A101892B31F0FB
:1009600061E084E10E94CA01C4E1D0E084E20E9417
:10097000A101892B09F446C086E20E94A10161E031
:10098000892BD9F185E30E94CA0161E089E10E94C7
:10099000CA010E94590281E08093000201151105ED
:1009A00009F43CCF0E94000039CF81E00E94A101F0
:1009B000019709F493CF82E00E94A101019709F405
:1009C0008DCF84E20E94A101019709F487CF83E0D3
:1009D0000E94A101019759F561E087E10E94CA01D7
:1009E00061E089E10E94CA010E94590260E089E148
:1009F0000E94CA0160E087E160CF82E10E94CA01E3
:100A0000C2E1D0E061E08DE10E94CA0161E086E1CF
:100A10000E94CA010E94590260E086E10E94CA0158
:100A200060E08C2F0E94CA0160E08DE146CF84E037
:100A30000E94A101019709F4AECF80E10E94A101BB
:100A4000019799F461E08CE10E94CA0161E082E2C1
:100A50000E94CA010E94590260E082E20E94CA011B
:100A600060E08CE10E94CA0199CF81E10E94A1015E
:100A7000019749F461E083E20E94CA010E94590291
:100A800060E083E2EFCF86E00E94A101892B09F4A8
:100A900085CF61E084E30E94CA0161E088E10E94A1
:100AA000CA010E94590260E088E10E94CA0160E028
:100AB00084E30E94CA0161E082E10E94CA0161E010
:100AC0008DE10E94CA010E94590261E086E10E9404
:100AD000CA010E94590260E086E10E94CA0160E0FA
:100AE00082E10E94CA0160E08DE10E94CA0161E0DA
:100AF00083E30E94CA010E94590260E083E30E94DE
:100B0000CA0161E087E10E94CA0161E08BE00E94B6
:100B1000CA010E94590260E08BE00E94CA0160E0B5
:100B200087E10E94CA018AE00E94A101892B09F491
:100B3000B0CF61E082E30E94CA0161E086E10E94D9
:100B4000CA010E94590260E086E10E94CA0160E089
:100B500082E3B3CEEE0FFF1F881F8BBF0790F69185
:080B6000E02D1994F894FFCF79
:00000001FF
